:020000040000FA
:0600000097EF00F0120072
:020006000000F8
:08000800060EF66E000EF76E05
:10001000000EF86E00010900F550656F0900F550FB
:10002000666F03E1656701D03DD00900F550606F50
:100030000900F550616F0900F550626F0900090071
:10004000F550E96E0900F550EA6E09000900090053
:10005000F550636F0900F550646F09000900F6CF91
:1000600067F0F7CF68F0F8CF69F060C0F6FF61C0C5
:10007000F7FF62C0F8FF0001635302E1645307E039
:100080000900F550EE6E6307F8E26407F9D767C020
:10009000F6FF68C0F7FF69C0F8FF00016507000EB2
:0600A000665BBFD71200F1
:0A00A600D9CFE6FFE1CFD9FF020E2B
:1000B000E126DE6ADD6ADECF02F0DDCF03F0100E4E
:1000C000025C270E035805E2DF2A010E01E3DB2A5A
:1000D000F2D7020EE15C02E2E16AE552E16EE5521E
:1000E000E7CFD9FF1200E00ED3120E0EC16E816A67
:1000F000936A92688A90816A89A804D08168D3DF64
:0E010000D2DF03D0816ACFDFCEDFF6D7120048
:02010E00000EE1
:10011000F36E00EE00F0040E01D81200EA6002D087
:0E012000EE6AFCD7F350E9601200EE6AFCD7DD
:02012E0013EECE
:1001300000F023EE00F0F86A019C04EC00F0A5EC5E
:0A01400000F073EC00F0FBD7120092
:02014A001200A1
:020000040030CA
:0100000000FF
:0100010009F5
:010003001EDE
:0100050003F7
:010006008178
:00000001FF
