:020000040000FA
:0600000099EF01F012006F
:020006000000F8
:08000800D9CFE6FFE1CFD9FFDB
:10001000020EE126DF2A010E01E3DB2A020EE15C7B
:1000200002E2E16AE552E16EE552E7CFD9FF120044
:10003000D9CFE6FFE1CFD9FF020EE126DE6ADD6A05
:10004000DECF02F0DDCF03F0E80E025C030E0358B2
:1000500005E2DF2A010E01E3DB2AF2D7020EE15CA2
:1000600002E2E16AE552E16EE552E7CFD9FF120004
:10007000CBDFCADFC9DFC8DFC7DF04EF00F0C4DFB2
:1000800004EF00F0D9CFE6FFE1CFD9FF070EE1265C
:100090000F0EC16E700ED312F18E6D96070EB46EF8
:1000A000B56A819E819A819C936AC2DFC1DFC0DFFD
:1000B000BFDFBEDF818E1E0EE66ED30EE66E70D8F9
:1000C000E552E552E668D30EE66E6AD8E552E5528F
:1000D000DE6ADD6ADECF02F0DDCF03F0FE0E025CE9
:1000E000000E035806E2A4DFDF2A010E01E3DB2A3B
:1000F000F1D7DE6ADD6ADECF02F0DDCF03F0FE0E5F
:10010000025C000E035806E293DFDF2A010E01E3D2
:10011000DB2AF1D7010EE66ED30EE66E41D8E5522A
:10012000E552DE6ADD6ADECF02F0DDCF03F0FE0EBF
:10013000025C000E035806E27BDFDF2A010E01E3BA
:10014000DB2AF1D7DE6ADD6ADECF02F0DDCF03F015
:10015000FE0E025C000E035806E26ADFDF2A010E83
:1001600001E3DB2AF1D7AED7070EE15C02E2E16AD8
:10017000E552E16EE552E7CFD9FF1200F28E9D867F
:10018000F00EC616C698C68AC78CC79E826A946A45
:10019000806A926A836A956AF36AF46A00D01200F0
:1001A000D9CFE6FFE1CFD9FF040EE126819E020EF2
:1001B000DB6A080EF36E020EDBCFF4FFF350F45C43
:1001C00022E2819C020EDBCFE6FF070EE552D880CB
:1001D000E754026EFE0EDB5002C0E7FFE75204E078
:1001E000E8427F0BE706FCE1E76E030EE7CFDBFF9B
:1001F000DB50010BE8B0818AE8A0819A818C3FDF57
:10020000020EDB2AD6D7020EDB6A080EF36E020E50
:10021000DBCFF4FFF350F45C22E2819C020EDBCFD3
:10022000E6FF070EE552D880E754026EFD0EDB5064
:1002300002C0E7FFE75204E0E8427F0BE706FCE17B
:10024000E76E030EE7CFDBFFDB50010BE8B0818ADE
:10025000E8A0819A818C13DF020EDB2AD6D7818E2B
:10026000040EE15C02E2E16AE552E16EE552E7CF9D
:04027000D9FF1200A0
:0C027400060EF66E000EF76E000EF86E1F
:1002800000010900F550656F0900F550666F03E144
:10029000656701D03DD00900F550606F0900F55049
:1002A000616F0900F550626F09000900F550E96EB1
:1002B0000900F550EA6E090009000900F550636F66
:1002C0000900F550646F09000900F6CF67F0F7CF19
:1002D00068F0F8CF69F060C0F6FF61C0F7FF62C058
:1002E000F8FF0001635302E1645307E00900F55091
:1002F000EE6E6307F8E26407F9D767C0F6FF68C0DF
:10030000F7FF69C0F8FF00016507000E665BBFD705
:020310001200D9
:0E031200000EF36E00EE00F0040E01D8120093
:10032000EA6002D0EE6AFCD7F350E9601200EE6A90
:02033000FCD7F8
:0E03320013EE00F023EE00F0F86A019C3AECA6
:0E03400001F0A7EC01F042EC00F0FBD7120038
:02034E0012009B
:020000040030CA
:0100000000FF
:0100010009F5
:010002001EDF
:010003001EDE
:0100050001F9
:010006008178
:00000001FF
