:020000040000FA
:060000003FEF01F01200C9
:020006000000F8
:08000800D9CFE6FFE1CFD9FFDB
:10001000020EE126DE6ADD6ADECF00F0DDCF01F000
:10002000100E005C270E015805E2DF2A010E01E3E5
:10003000DB2AF2D7020EE15C02E2E16AE552E16EF0
:10004000E552E7CFD9FF1200D9CFE6FFE1CFD9FFC4
:10005000020EE1260F0EC16E700ED312F18E6D9658
:10006000070EB46EB56A816A936A92688A90816A53
:1000700080A09BD08050020B0EE08050040B0BE15F
:100080008050080B08E18050100B05E1800E816E56
:10009000BBDFBADF89D08050020B0EE18050040B29
:1000A0000BE08050080B08E18050100B05E1400E7A
:1000B000816EAADFA9DF78D08050020B0EE080505D
:1000C000040B0BE08050080B08E18050100B05E199
:1000D000200E816E99DF98DF67D08050020B0EE111
:1000E0008050040B0BE18050080B08E08050100B8F
:1000F00005E1100E816E88DF87DF56D08050020B3D
:100100000EE08050040B0BE18050080B08E080509B
:10011000100B05E1080E816E77DF76DF45D0805049
:10012000020B0EE18050040B0BE08050080B08E03E
:100130008050100B05E1040E816E66DF65DF34D060
:100140008050020B0EE08050040B0BE08050080B37
:1001500008E08050100B05E1020E816E55DF54DF80
:1001600023D08050100B01E0010E026E8050080B6E
:1001700002E0000E01D0010E016E8050040B02E07F
:10018000000E01D0010E006E8050020B02E0000E46
:1001900001D0010E00140114021405E0010E816E5D
:1001A00033DF32DF01D0816A00D062D7020EE15C1A
:1001B00002E2E16AE552E16EE552E7CFD9FF1200B3
:1001C000060EF66E000EF76E000EF86E00010900C6
:1001D000F550656F0900F550666F03E1656701D062
:1001E0003DD00900F550606F0900F550616F0900BE
:1001F000F550626F09000900F550E96E0900F550ED
:10020000EA6E090009000900F550636F0900F55016
:10021000646F09000900F6CF67F0F7CF68F0F8CFF8
:1002200069F060C0F6FF61C0F7FF62C0F8FF00012F
:10023000635302E1645307E00900F550EE6E630773
:10024000F8E26407F9D767C0F6FF68C0F7FF69C036
:0E025000F8FF00016507000E665BBFD71200C5
:02025E00000E90
:10026000F36E00EE00F0040E01D81200EA6002D036
:0E027000EE6AFCD7F350E9601200EE6AFCD78C
:02027E0013EE7D
:1002800000F023EE00F0F86A049CE0EC00F04DEC86
:0A02900001F024EC00F0FBD712008F
:02029A00120050
:020000040030CA
:0100000000FF
:0100010009F5
:010003001EDE
:0100050001F9
:010006008178
:00000001FF
